{
    "contractName": "MadnetFactory",
    "abi": [
        {
            "inputs": [
                {
                    "internalType": "address",
                    "name": "selfAddr_",
                    "type": "address"
                }
            ],
            "stateMutability": "nonpayable",
            "type": "constructor"
        },
        {
            "anonymous": false,
            "inputs": [
                {
                    "indexed": false,
                    "internalType": "bytes32",
                    "name": "salt",
                    "type": "bytes32"
                },
                {
                    "indexed": false,
                    "internalType": "address",
                    "name": "contractAddr",
                    "type": "address"
                }
            ],
            "name": "Deployed",
            "type": "event"
        },
        {
            "anonymous": false,
            "inputs": [
                {
                    "indexed": false,
                    "internalType": "address",
                    "name": "contractAddr",
                    "type": "address"
                }
            ],
            "name": "DeployedProxy",
            "type": "event"
        },
        {
            "anonymous": false,
            "inputs": [
                {
                    "indexed": false,
                    "internalType": "address",
                    "name": "contractAddr",
                    "type": "address"
                }
            ],
            "name": "DeployedRaw",
            "type": "event"
        },
        {
            "anonymous": false,
            "inputs": [
                {
                    "indexed": false,
                    "internalType": "address",
                    "name": "contractAddr",
                    "type": "address"
                }
            ],
            "name": "DeployedStatic",
            "type": "event"
        },
        {
            "anonymous": false,
            "inputs": [
                {
                    "indexed": false,
                    "internalType": "address",
                    "name": "contractAddr",
                    "type": "address"
                }
            ],
            "name": "DeployedTemplate",
            "type": "event"
        },
        {
            "stateMutability": "nonpayable",
            "type": "fallback"
        },
        {
            "inputs": [
                {
                    "internalType": "address",
                    "name": "_target",
                    "type": "address"
                },
                {
                    "internalType": "uint256",
                    "name": "_value",
                    "type": "uint256"
                },
                {
                    "internalType": "bytes",
                    "name": "_cdata",
                    "type": "bytes"
                }
            ],
            "name": "callAny",
            "outputs": [],
            "stateMutability": "nonpayable",
            "type": "function"
        },
        {
            "inputs": [],
            "name": "contracts",
            "outputs": [
                {
                    "internalType": "bytes32[]",
                    "name": "_v",
                    "type": "bytes32[]"
                }
            ],
            "stateMutability": "view",
            "type": "function"
        },
        {
            "inputs": [
                {
                    "internalType": "address",
                    "name": "_target",
                    "type": "address"
                },
                {
                    "internalType": "bytes",
                    "name": "_cdata",
                    "type": "bytes"
                }
            ],
            "name": "delegateCallAny",
            "outputs": [],
            "stateMutability": "nonpayable",
            "type": "function"
        },
        {
            "inputs": [],
            "name": "delegator",
            "outputs": [
                {
                    "internalType": "address",
                    "name": "_v",
                    "type": "address"
                }
            ],
            "stateMutability": "view",
            "type": "function"
        },
        {
            "inputs": [
                {
                    "internalType": "address",
                    "name": "_implementation",
                    "type": "address"
                },
                {
                    "internalType": "bytes32",
                    "name": "_salt",
                    "type": "bytes32"
                },
                {
                    "internalType": "bytes",
                    "name": "_initCallData",
                    "type": "bytes"
                }
            ],
            "name": "deploy",
            "outputs": [
                {
                    "internalType": "address",
                    "name": "contractAddr",
                    "type": "address"
                }
            ],
            "stateMutability": "payable",
            "type": "function"
        },
        {
            "inputs": [
                {
                    "internalType": "bytes",
                    "name": "_deployCode",
                    "type": "bytes"
                }
            ],
            "name": "deployCreate",
            "outputs": [
                {
                    "internalType": "address",
                    "name": "contractAddr",
                    "type": "address"
                }
            ],
            "stateMutability": "nonpayable",
            "type": "function"
        },
        {
            "inputs": [
                {
                    "internalType": "uint256",
                    "name": "_value",
                    "type": "uint256"
                },
                {
                    "internalType": "bytes32",
                    "name": "_salt",
                    "type": "bytes32"
                },
                {
                    "internalType": "bytes",
                    "name": "_deployCode",
                    "type": "bytes"
                }
            ],
            "name": "deployCreate2",
            "outputs": [
                {
                    "internalType": "address",
                    "name": "contractAddr",
                    "type": "address"
                }
            ],
            "stateMutability": "payable",
            "type": "function"
        },
        {
            "inputs": [
                {
                    "internalType": "bytes32",
                    "name": "_salt",
                    "type": "bytes32"
                }
            ],
            "name": "deployProxy",
            "outputs": [
                {
                    "internalType": "address",
                    "name": "contractAddr",
                    "type": "address"
                }
            ],
            "stateMutability": "nonpayable",
            "type": "function"
        },
        {
            "inputs": [
                {
                    "internalType": "bytes32",
                    "name": "_salt",
                    "type": "bytes32"
                },
                {
                    "internalType": "bytes",
                    "name": "_initCallData",
                    "type": "bytes"
                }
            ],
            "name": "deployStatic",
            "outputs": [
                {
                    "internalType": "address",
                    "name": "contractAddr",
                    "type": "address"
                }
            ],
            "stateMutability": "nonpayable",
            "type": "function"
        },
        {
            "inputs": [
                {
                    "internalType": "bytes",
                    "name": "_deployCode",
                    "type": "bytes"
                }
            ],
            "name": "deployTemplate",
            "outputs": [
                {
                    "internalType": "address",
                    "name": "contractAddr",
                    "type": "address"
                }
            ],
            "stateMutability": "nonpayable",
            "type": "function"
        },
        {
            "inputs": [
                {
                    "internalType": "bytes",
                    "name": "_deployCode",
                    "type": "bytes"
                }
            ],
            "name": "deployTemplateWithSD",
            "outputs": [
                {
                    "internalType": "address",
                    "name": "contractAddr",
                    "type": "address"
                }
            ],
            "stateMutability": "nonpayable",
            "type": "function"
        },
        {
            "inputs": [
                {
                    "internalType": "address",
                    "name": "_contractAddr",
                    "type": "address"
                }
            ],
            "name": "destroy",
            "outputs": [],
            "stateMutability": "nonpayable",
            "type": "function"
        },
        {
            "inputs": [
                {
                    "internalType": "address",
                    "name": "target",
                    "type": "address"
                }
            ],
            "name": "extCodeSize",
            "outputs": [
                {
                    "internalType": "uint256",
                    "name": "size",
                    "type": "uint256"
                }
            ],
            "stateMutability": "view",
            "type": "function"
        },
        {
            "inputs": [
                {
                    "internalType": "bytes32",
                    "name": "_salt",
                    "type": "bytes32"
                }
            ],
            "name": "getContractAddress",
            "outputs": [
                {
                    "internalType": "address",
                    "name": "",
                    "type": "address"
                }
            ],
            "stateMutability": "view",
            "type": "function"
        },
        {
            "inputs": [
                {
                    "internalType": "bytes32",
                    "name": "_salt",
                    "type": "bytes32"
                },
                {
                    "internalType": "address",
                    "name": "_factory",
                    "type": "address"
                }
            ],
            "name": "getMetamorphicContractAddress",
            "outputs": [
                {
                    "internalType": "address",
                    "name": "",
                    "type": "address"
                }
            ],
            "stateMutability": "pure",
            "type": "function"
        },
        {
            "inputs": [],
            "name": "getNumContracts",
            "outputs": [
                {
                    "internalType": "uint256",
                    "name": "",
                    "type": "uint256"
                }
            ],
            "stateMutability": "view",
            "type": "function"
        },
        {
            "inputs": [],
            "name": "implementation",
            "outputs": [
                {
                    "internalType": "address",
                    "name": "_v",
                    "type": "address"
                }
            ],
            "stateMutability": "view",
            "type": "function"
        },
        {
            "inputs": [
                {
                    "internalType": "address",
                    "name": "_contract",
                    "type": "address"
                },
                {
                    "internalType": "bytes",
                    "name": "_initCallData",
                    "type": "bytes"
                }
            ],
            "name": "initializeContract",
            "outputs": [],
            "stateMutability": "nonpayable",
            "type": "function"
        },
        {
            "inputs": [
                {
                    "internalType": "bytes[]",
                    "name": "_cdata",
                    "type": "bytes[]"
                }
            ],
            "name": "multiCall",
            "outputs": [],
            "stateMutability": "nonpayable",
            "type": "function"
        },
        {
            "inputs": [],
            "name": "owner",
            "outputs": [
                {
                    "internalType": "address",
                    "name": "_v",
                    "type": "address"
                }
            ],
            "stateMutability": "view",
            "type": "function"
        },
        {
            "inputs": [
                {
                    "internalType": "address",
                    "name": "_new",
                    "type": "address"
                }
            ],
            "name": "setDelegator",
            "outputs": [],
            "stateMutability": "nonpayable",
            "type": "function"
        },
        {
            "inputs": [
                {
                    "internalType": "address",
                    "name": "_new",
                    "type": "address"
                }
            ],
            "name": "setOwner",
            "outputs": [],
            "stateMutability": "nonpayable",
            "type": "function"
        },
        {
            "inputs": [
                {
                    "internalType": "bytes32",
                    "name": "_salt",
                    "type": "bytes32"
                },
                {
                    "internalType": "address",
                    "name": "_newImpl",
                    "type": "address"
                }
            ],
            "name": "upgradeProxy",
            "outputs": [],
            "stateMutability": "nonpayable",
            "type": "function"
        }
    ],
    "bytecode": "60a06040523480156200001157600080fd5b5060405162001b1538038062001b158339810160408190526200003491620000e7565b6040516000906738585839386009f360c01b906200005560208201620000d9565b601f1982820381018352601f909101166040819052620000859291906001600160a01b0386169060200162000119565b604051602081830303815290604052905060008151602083016000f0905080620000b3573d6000803e3d6000fd5b6001600160a01b03166080525050600080546001600160a01b0319163317905562000175565b61019e806200197783390190565b600060208284031215620000fa57600080fd5b81516001600160a01b03811681146200011257600080fd5b9392505050565b6001600160c01b0319841681528251600090815b818110156200014c57602081870181015160088684010152016200012d565b818111156200015f576000600883860101525b5060089201918201929092526028019392505050565b6080516117e6620001916000396000610c9001526117e66000f3fe60806040526004361061017f5760003560e01c806356f2a761116100d6578063921433a71161007f578063e1d7a8e411610059578063e1d7a8e41461050a578063fa481da51461052a578063fc6f06f51461054a5761017f565b8063921433a7146104a0578063ce9b7930146104c0578063cfe10b30146104eb5761017f565b806383cd9cc3116100b057806383cd9cc3146103755780638653a465146103955780638da5cb5b146104755761017f565b806356f2a761146103155780635c60da1b146103285780636c0f79b6146103535761017f565b806317cff2c511610138578063348a0cdc11610112578063348a0cdc146102b557806339cab472146102d55780634713ee7a146102f55761017f565b806317cff2c51461026257806327fc65c51461028257806327fe1822146102955761017f565b80630d2020dd116101695780630d2020dd146101d857806312e6bf6a1461022257806313af4035146102425761017f565b8062f55d9d146101965780630a008a5d146101b8575b34801561018b57600080fd5b506003543d5260203df35b3480156101a257600080fd5b506101b66101b13660046113f6565b610569565b005b3480156101c457600080fd5b506101b66101d3366004611418565b6105ba565b3480156101e457600080fd5b506101f86101f3366004611444565b6106c3565b60405173ffffffffffffffffffffffffffffffffffffffff90911681526020015b60405180910390f35b34801561022e57600080fd5b506101b661023d3660046114a6565b610795565b34801561024e57600080fd5b506101b661025d3660046113f6565b610814565b34801561026e57600080fd5b506101f861027d366004611500565b610887565b6101f86102903660046114a6565b6109d1565b3480156102a157600080fd5b506101f86102b0366004611500565b610b04565b3480156102c157600080fd5b506101b66102d0366004611542565b610ba1565b3480156102e157600080fd5b506101f86102f0366004611444565b610c60565b34801561030157600080fd5b506101b66103103660046115b7565b610d3d565b6101f861032336600461160a565b610dd3565b34801561033457600080fd5b5060035473ffffffffffffffffffffffffffffffffffffffff166101f8565b34801561035f57600080fd5b50610368610e7f565b6040516102199190611645565b34801561038157600080fd5b506101b66103903660046113f6565b610ed7565b3480156103a157600080fd5b506101f86103b0366004611418565b6040517fff0000000000000000000000000000000000000000000000000000000000000060208201527fffffffffffffffffffffffffffffffffffffffff000000000000000000000000606083901b166021820152603581018390527f1c0bf703a3415cada9785e89e9d70314c3111ae7d8e04f33bb42eb1d264088be6055820152600090607501604080517fffffffffffffffffffffffffffffffffffffffffffffffffffffffffffffffe081840301815291905280516020909101209392505050565b34801561048157600080fd5b5060005473ffffffffffffffffffffffffffffffffffffffff166101f8565b3480156104ac57600080fd5b506101f86104bb366004611500565b610f4a565b3480156104cc57600080fd5b5060015473ffffffffffffffffffffffffffffffffffffffff166101f8565b3480156104f757600080fd5b506002545b604051908152602001610219565b34801561051657600080fd5b506101b66105253660046115b7565b61108f565b34801561053657600080fd5b506101f8610545366004611689565b611117565b34801561055657600080fd5b506104fc6105653660046113f6565b3b90565b61059633301480610591575060005473ffffffffffffffffffffffffffffffffffffffff1633145b61121c565b806105a057506003545b600080602060406000855af1806105b657600080fd5b5050565b6105e633301480610591575060005473ffffffffffffffffffffffffffffffffffffffff16331461121c565b60006106b283306040517fff0000000000000000000000000000000000000000000000000000000000000060208201527fffffffffffffffffffffffffffffffffffffffff000000000000000000000000606083901b166021820152603581018390527f1c0bf703a3415cada9785e89e9d70314c3111ae7d8e04f33bb42eb1d264088be6055820152600090607501604080517fffffffffffffffffffffffffffffffffffffffffffffffffffffffffffffffe081840301815291905280516020909101209392505050565b90506106be818361128b565b505050565b600061078f82306040517fff0000000000000000000000000000000000000000000000000000000000000060208201527fffffffffffffffffffffffffffffffffffffffff000000000000000000000000606083901b166021820152603581018390527f1c0bf703a3415cada9785e89e9d70314c3111ae7d8e04f33bb42eb1d264088be6055820152600090607501604080517fffffffffffffffffffffffffffffffffffffffffffffffffffffffffffffffe081840301815291905280516020909101209392505050565b92915050565b6107c133301480610591575060005473ffffffffffffffffffffffffffffffffffffffff16331461121c565b600082828080601f01602080910402602001604051908101604052809392919081815260200183838082843760009201919091525092935061080a92508791508690508361132b565b3d6000803e3d6000f35b61084033301480610591575060005473ffffffffffffffffffffffffffffffffffffffff16331461121c565b600080547fffffffffffffffffffffffff00000000000000000000000000000000000000001673ffffffffffffffffffffffffffffffffffffffff92909216919091179055565b60006108b533301480610591575060005473ffffffffffffffffffffffffffffffffffffffff16331461121c565b604080518381016028019091527f38585839386009f3000000000000000000000000000000000000000000000000815260088101838582378381019050308152602081019050818103826000f09250505080610935577f796565740000000000000000000000000000000000000000000000000000000060005260206000fd5b610942813b5b151561134f565b60405173ffffffffffffffffffffffffffffffffffffffff821681527f6cd94ea1c5d9f99038bb4629d8a759399654d3861b73bf3a2b0cf484dae721389060200160405180910390a1600380547fffffffffffffffffffffffff00000000000000000000000000000000000000001673ffffffffffffffffffffffffffffffffffffffff831617905592915050565b60006109ff33301480610591575060005473ffffffffffffffffffffffffffffffffffffffff16331461121c565b8415610a0a57846003555b6040517f6020363636335afa1536363636515af43d36363e3d36f30000000000000000008152846017826000f591508215610a56578284823760008084836000865af1610a56573d6000fd5b50610a7873ffffffffffffffffffffffffffffffffffffffff8216151561134f565b600280546001810182556000919091527f405787fa12a823e0f2b7631cc41b3ba8828b3321ca811111fa75cd3aa3bb5ace018490556040805185815273ffffffffffffffffffffffffffffffffffffffff831660208201527fe491e278e37782abe0872fe7c7b549cd7b0713d0c5c1e84a81899a5fdf32087b91015b60405180910390a1949350505050565b6000610b3233301480610591575060005473ffffffffffffffffffffffffffffffffffffffff16331461121c565b60405180838582378301818103826000f092505050610b5261093b823b90565b60405173ffffffffffffffffffffffffffffffffffffffff821681527fd3acf0da590cfcd8f020afd7f40b7e6e4c8bd2fc9eb7aec9836837b667685b3a9060200160405180910390a192915050565b610bcd33301480610591575060005473ffffffffffffffffffffffffffffffffffffffff16331461121c565b60005b81811015610c55576000838383818110610bec57610bec6116bc565b9050602002810190610bfe91906116eb565b8080601f0160208091040260200160405190810160405280939291908181526020018383808284376000920182905250939450610c4293309350915084905061132b565b5080610c4d81611750565b915050610bd0565b503d6000803e3d6000f35b6000610c8e33301480610591575060005473ffffffffffffffffffffffffffffffffffffffff16331461121c565b7f0000000000000000000000000000000000000000000000000000000000000000600381905560408051602081019091527f6020363636335afa1536363636515af43d36363e3d36f30000000000000000008152836017826000f560405173ffffffffffffffffffffffffffffffffffffffff821681529093507f06690e5b52be10a3d5820ec875c3dd3327f3077954a09f104201e40e5f7082c6915060200160405180910390a1505b919050565b610d8b33301480610d65575060005473ffffffffffffffffffffffffffffffffffffffff1633145b80610591575060015473ffffffffffffffffffffffffffffffffffffffff16331461121c565b600082828080601f01602080910402602001604051908101604052809392919081815260200183838082843760009201919091525092935061080a92508691508390506113b6565b6000610e0133301480610591575060005473ffffffffffffffffffffffffffffffffffffffff16331461121c565b60405180838582378301858282038389f592505050610e398173ffffffffffffffffffffffffffffffffffffffff166000141561134f565b60405173ffffffffffffffffffffffffffffffffffffffff821681527fd3acf0da590cfcd8f020afd7f40b7e6e4c8bd2fc9eb7aec9836837b667685b3a90602001610af4565b60606002805480602002602001604051908101604052809291908181526020018280548015610ecd57602002820191906000526020600020905b815481526020019060010190808311610eb9575b5050505050905090565b610f0333301480610591575060005473ffffffffffffffffffffffffffffffffffffffff16331461121c565b600180547fffffffffffffffffffffffff00000000000000000000000000000000000000001673ffffffffffffffffffffffffffffffffffffffff92909216919091179055565b6000610f7833301480610591575060005473ffffffffffffffffffffffffffffffffffffffff16331461121c565b6040516a38585839386009f3610000831760a81b8152600b810160568153600101605b81536001017ffffffffffffffffffffffffffffffffffffffffffffffffffffffffffffffffb840160058601823760287fffffffffffffffffffffffffffffffffffffffffffffffffffffffffffffffdb918501918201527ffffffffffffffffffffffffffffffffffffffffffffffffffffffffffffffffb01605b815360010160058582377f33730000000000000000000000000000000000000000141560040000000000003060501b1760058201527f57361560045733ff000000000000000000000000000000000000000000000000601f82015260278082019183900301826000f09250505061094261093b823b90565b6110dc33301480610d65575060005473ffffffffffffffffffffffffffffffffffffffff16331480610591575060015473ffffffffffffffffffffffffffffffffffffffff16331461121c565b80156106be576040518082016040528183823760008083836000885af1611111576040519050803d016040523d6000823e3d81fd5b50505050565b600061114533301480610591575060005473ffffffffffffffffffffffffffffffffffffffff16331461121c565b60405160208101604052766020363636335afa1536363636515af43d36363e3d36f360481b8152846017826000f59150503d15611186573d6000803e3d6000fd5b803b15811517156111bb577f537461746963206465706c6f79206661696c656400000000000000000000000060005260206000fd5b81156111cc576111cc81848461108f565b60405173ffffffffffffffffffffffffffffffffffffffff821681527fe8b9cb7d60827a7d55e211f1382dd0f129adb541af9fe45a09ab4a18b76e7c659060200160405180910390a19392505050565b80611288576040517f08c379a000000000000000000000000000000000000000000000000000000000815260206004820152600c60248201527f756e617574686f72697a6564000000000000000000000000000000000000000060448201526064015b60405180910390fd5b50565b6040805173ffffffffffffffffffffffffffffffffffffffff83166024808301919091528251808303909101815260449091019091526020810180517bffffffffffffffffffffffffffffffffffffffffffffffffffffffff167fca11c0de00000000000000000000000000000000000000000000000000000000178152815160009182919082875af16106be576040513d81016040523d6000823e3d81fd5b805181602001600080838387895af1611348573d6000803e3d6000fd5b5050505050565b80611288576040517f08c379a000000000000000000000000000000000000000000000000000000000815260206004820152600660248201527f6373697a65300000000000000000000000000000000000000000000000000000604482015260640161127f565b8051816020016000808383875af4611111573d6000803e3d6000fd5b803573ffffffffffffffffffffffffffffffffffffffff81168114610d3857600080fd5b60006020828403121561140857600080fd5b611411826113d2565b9392505050565b6000806040838503121561142b57600080fd5b8235915061143b602084016113d2565b90509250929050565b60006020828403121561145657600080fd5b5035919050565b60008083601f84011261146f57600080fd5b50813567ffffffffffffffff81111561148757600080fd5b60208301915083602082850101111561149f57600080fd5b9250929050565b600080600080606085870312156114bc57600080fd5b6114c5856113d2565b935060208501359250604085013567ffffffffffffffff8111156114e857600080fd5b6114f48782880161145d565b95989497509550505050565b6000806020838503121561151357600080fd5b823567ffffffffffffffff81111561152a57600080fd5b6115368582860161145d565b90969095509350505050565b6000806020838503121561155557600080fd5b823567ffffffffffffffff8082111561156d57600080fd5b818501915085601f83011261158157600080fd5b81358181111561159057600080fd5b8660208260051b85010111156115a557600080fd5b60209290920196919550909350505050565b6000806000604084860312156115cc57600080fd5b6115d5846113d2565b9250602084013567ffffffffffffffff8111156115f157600080fd5b6115fd8682870161145d565b9497909650939450505050565b6000806000806060858703121561162057600080fd5b8435935060208501359250604085013567ffffffffffffffff8111156114e857600080fd5b6020808252825182820181905260009190848201906040850190845b8181101561167d57835183529284019291840191600101611661565b50909695505050505050565b60008060006040848603121561169e57600080fd5b83359250602084013567ffffffffffffffff8111156115f157600080fd5b7f4e487b7100000000000000000000000000000000000000000000000000000000600052603260045260246000fd5b60008083357fffffffffffffffffffffffffffffffffffffffffffffffffffffffffffffffe184360301811261172057600080fd5b83018035915067ffffffffffffffff82111561173b57600080fd5b60200191503681900382131561149f57600080fd5b60007fffffffffffffffffffffffffffffffffffffffffffffffffffffffffffffffff8214156117a9577f4e487b7100000000000000000000000000000000000000000000000000000000600052601160045260246000fd5b506001019056fea2646970667358221220ec1af321f512c22782fa062e49f2a81bb20ce42ec4742965d44d4813b4a9420d64736f6c634300080b003360a060405234801561001057600080fd5b5060405161019e38038061019e83398101604081905261002f91610040565b6001600160a01b0316608052610070565b60006020828403121561005257600080fd5b81516001600160a01b038116811461006957600080fd5b9392505050565b60805161011461008a6000396000600601526101146000f3fe60806040527f000000000000000000000000000000000000000000000000000000000000000060b0565b3d195473ffffffffffffffffffffffffffffffffffffffff600435169060a01c6bca11c0de15dead10cced000014156083577f696d706c6f6300000000000000000000000000000000000000000000000000003d5260203dfd5b3d1955005b604051368101604052363d82373d3d36833d19545af43d6000833e8060ab573d82fd5b503d81f35b8033141560d557602436141560d55763ca11c0de60003560e01c141560d55760d56029565b60db6088565b5000fea2646970667358221220a7ff59980c0105728fd8b40ee4a9e7b06f78d03c3a963b9499dc4dc7153ee5fa64736f6c634300080b0033",
    "sourcePath": "/home/zj/work/mn/bridge/src/factory/MadnetFactory.sol",
    "compiler": {
        "name": "solc",
        "version": "0.8.11+commit.d7f03943"
    },
    "functionHashes": {
        "callAny(address,uint256,bytes)": "12e6bf6a",
        "contracts()": "6c0f79b6",
        "delegateCallAny(address,bytes)": "4713ee7a",
        "delegator()": "ce9b7930",
        "deploy(address,bytes32,bytes)": "27fc65c5",
        "deployCreate(bytes)": "27fe1822",
        "deployCreate2(uint256,bytes32,bytes)": "56f2a761",
        "deployProxy(bytes32)": "39cab472",
        "deployStatic(bytes32,bytes)": "fa481da5",
        "deployTemplate(bytes)": "17cff2c5",
        "deployTemplateWithSD(bytes)": "921433a7",
        "destroy(address)": "00f55d9d",
        "extCodeSize(address)": "fc6f06f5",
        "getContractAddress(bytes32)": "0d2020dd",
        "getMetamorphicContractAddress(bytes32,address)": "8653a465",
        "getNumContracts()": "cfe10b30",
        "implementation()": "5c60da1b",
        "initializeContract(address,bytes)": "e1d7a8e4",
        "multiCall(bytes[])": "348a0cdc",
        "owner()": "8da5cb5b",
        "setDelegator(address)": "83cd9cc3",
        "setOwner(address)": "13af4035",
        "upgradeProxy(bytes32,address)": "0a008a5d"
    },
    "gasEstimates": {
        "creation": {
            "codeDepositCost": "1223600",
            "executionCost": "infinite",
            "totalCost": "infinite"
        },
        "external": {
            "": "infinite",
            "callAny(address,uint256,bytes)": "infinite",
            "contracts()": "infinite",
            "delegateCallAny(address,bytes)": "infinite",
            "delegator()": "2363",
            "deploy(address,bytes32,bytes)": "infinite",
            "deployCreate(bytes)": "infinite",
            "deployCreate2(uint256,bytes32,bytes)": "infinite",
            "deployProxy(bytes32)": "infinite",
            "deployStatic(bytes32,bytes)": "infinite",
            "deployTemplate(bytes)": "infinite",
            "deployTemplateWithSD(bytes)": "infinite",
            "destroy(address)": "infinite",
            "extCodeSize(address)": "3026",
            "getContractAddress(bytes32)": "577",
            "getMetamorphicContractAddress(bytes32,address)": "651",
            "getNumContracts()": "2370",
            "implementation()": "2364",
            "initializeContract(address,bytes)": "infinite",
            "multiCall(bytes[])": "infinite",
            "owner()": "2385",
            "setDelegator(address)": "26759",
            "setOwner(address)": "26804",
            "upgradeProxy(bytes32,address)": "infinite"
        },
        "internal": {
            "callAnyInternal(address,uint256,bytes memory)": "infinite",
            "codeSizeZeroRevert(bool)": "infinite",
            "delegateCallAnyInternal(address,bytes memory)": "infinite",
            "requireAuth(bool)": "infinite"
        }
    }
}