{
    "contractName": "utils",
    "abi": [
        {
            "inputs": [
                {
                    "internalType": "address",
                    "name": "impl",
                    "type": "address"
                }
            ],
            "name": "encodeProxyDeploy",
            "outputs": [
                {
                    "internalType": "bytes",
                    "name": "",
                    "type": "bytes"
                }
            ],
            "stateMutability": "view",
            "type": "function"
        },
        {
            "inputs": [
                {
                    "internalType": "address",
                    "name": "target",
                    "type": "address"
                }
            ],
            "name": "getCode",
            "outputs": [
                {
                    "internalType": "bytes",
                    "name": "",
                    "type": "bytes"
                }
            ],
            "stateMutability": "payable",
            "type": "function"
        },
        {
            "inputs": [
                {
                    "internalType": "address",
                    "name": "target",
                    "type": "address"
                }
            ],
            "name": "getCodeSize",
            "outputs": [
                {
                    "internalType": "uint256",
                    "name": "",
                    "type": "uint256"
                }
            ],
            "stateMutability": "view",
            "type": "function"
        }
    ],
    "bytecode": "608060405234801561001057600080fd5b506104c8806100206000396000f3fe6080604052600436106100345760003560e01c8063271a4135146100395780637e105ce21461006f578063b51c4f9614610082575b600080fd5b34801561004557600080fd5b5061005961005436600461017b565b6100af565b604051610066919061022b565b60405180910390f35b61005961007d36600461017b565b6100c3565b34801561008e57600080fd5b506100a161009d36600461017b565b3b90565b604051908152602001610066565b6060806100bc83826100f1565b9392505050565b6060813b6000610120843c602080833b04026020833b06156100e3576020015b823b61010052602081016000f35b606060006040518061022001604052806101ee81526020016102a56101ee9139905080848460405160200161012792919061023e565b604080517fffffffffffffffffffffffffffffffffffffffffffffffffffffffffffffffe0818403018152908290526101639291602001610275565b60405160208183030381529060405291505092915050565b60006020828403121561018d57600080fd5b813573ffffffffffffffffffffffffffffffffffffffff811681146100bc57600080fd5b60005b838110156101cc5781810151838201526020016101b4565b838111156101db576000848401525b50505050565b600081518084526101f98160208601602086016101b1565b601f017fffffffffffffffffffffffffffffffffffffffffffffffffffffffffffffffe0169290920160200192915050565b6020815260006100bc60208301846101e1565b73ffffffffffffffffffffffffffffffffffffffff8316815260406020820152600061026d60408301846101e1565b949350505050565b600083516102878184602088016101b1565b83519083019061029b8183602088016101b1565b0194935050505056fe60a060405234801561001057600080fd5b506040516101ee3803806101ee83398101604081905261002f91610053565b503360808190521955610145565b634e487b7160e01b600052604160045260246000fd5b6000806040838503121561006657600080fd5b82516001600160a01b038116811461007d57600080fd5b602084810151919350906001600160401b038082111561009c57600080fd5b818601915086601f8301126100b057600080fd5b8151818111156100c2576100c261003d565b604051601f8201601f19908116603f011681019083821181831017156100ea576100ea61003d565b81604052828152898684870101111561010257600080fd5b600093505b828410156101245784840186015181850187015292850192610107565b828411156101355760008684830101525b8096505050505050509250929050565b608051609161015d60003960006009015260916000f3fe60806040526040517f000000000000000000000000000000000000000000000000000000000000000090363d8237811982331415603e57815181553682f35b3d3d3d368585545af491503d81843e50806056573d82fd5b503d81f3fea2646970667358221220bdc9f5e3b8432af0970b67d5af169636847415b0b28c116d89b918908fc8343564736f6c634300080b0033a2646970667358221220b69e5d4ffd7ad2482b4bfcfb8bb7ccb4374a670beea8000cd5a05236a5a72d6064736f6c634300080b0033",
    "sourcePath": "/home/zj/work/mn/bridge/src/factory/MadnetFactory.sol",
    "compiler": {
        "name": "solc",
        "version": "0.8.11+commit.d7f03943"
    },
    "functionHashes": {
        "encodeProxyDeploy(address)": "271a4135",
        "getCode(address)": "7e105ce2",
        "getCodeSize(address)": "b51c4f96"
    },
    "gasEstimates": {
        "creation": {
            "codeDepositCost": "244800",
            "executionCost": "287",
            "totalCost": "245087"
        },
        "external": {
            "encodeProxyDeploy(address)": "infinite",
            "getCode(address)": "infinite",
            "getCodeSize(address)": "2925"
        },
        "internal": {
            "epd(address,bytes memory)": "infinite"
        }
    }
}